:020000040000FA
:020000000528D1
:08000800582898308B00831684
:1000100031308600870188018312860187018801BB
:1000200083010830AB000230A900AA00A001AD0195
:1000300021102210861453208610211421181E2806
:1000400006155320061122142218242825082602FA
:1000500003193728031C2D2832282508AF003B2020
:10006000081710282608AF003B20881710280530F5
:100070009D20870010280A30AF020318A00A031839
:100080003B28200AAB0203194828031848284B28AC
:100090009D208700080008309D208700083020023E
:1000A000A720880008000A30AC00AC0B55280800D7
:1000B000A300030EA4008B1863280B186E202308DE
:1000C000240E83000900101006080139B000301C0E
:1000D0006B28880164288B108B1710282118742036
:1000E000221881200B10080010148610A90B08009C
:1000F000211010108E202E08A600AE018E018F0157
:10010000080010140611AA0B0800221010108E20EF
:100110002E08A500AE018E018F0108009220043048
:10012000AE0708003B308E02AE0A031892289828CA
:1001300001308F02031908009228820700348034AE
:10014000C034E034F034F834FC34FE34FF34820739
:0601500002340234033406
:00000001FF
